:1000000000200020C1000000D5030000D50300003F
:10001000D5030000D5030000D50300000000000058
:10002000000000000000000000000000D5030000F8
:10003000D503000000000000D5030000D503000038
:10004000750200009D02000061020000C103000073
:10005000D5030000D5030000D5030000D503000040
:10006000D5030000D5030000D5030000D503000030
:10007000D5030000D5030000D5030000D503000020
:10008000D5030000D5030000D5030000D503000010
:10009000D5030000D5030000D5030000D503000000
:1000A000D5030000D5030000D5030000D5030000F0
:1000B000D5030000D5030000D5030000D5030000E0
:1000C00070B5544BF1221B78AA2B0DD15249534BDA
:1000D0000020085652491B7809785BB2C01849B213
:1000E000884201D11A1CF1328023DB0559685A601D
:1000F00098680E2098600021D868D960186C80201C
:10010000C00118641869FE20C0011861454B4648BB
:1001100000E002C38342FCD34449454B890AC9B27B
:1001200019704449444809680024890AC9B25970C1
:1001300042490968890AC9B2997004709E785D784D
:100140000121AE420DD959780131C9B281705E7872
:100150001D78211CAE4204D91B78FF210133DBB28C
:100160004370324B1878364B1870FF2903D1304951
:1001700089781E2902D9FF21597006E02D490968A6
:10018000097859702D490968097899709978FF297B
:1001900005D05B78FF2B02D000F03AF970BD294BF7
:1001A0002949C0200B60294940000B602849294C8F
:1001B0000B60294B02211950C02088401D582C404B
:1001C0001C502648042504692C43046162B619605A
:1001D0008023DB05196C802109021964196C8021C8
:1001E000C90119649968802149009960D100891A70
:1001F00089008A1811018A1A1112C82209061204EC
:100200000A43A021C90588688A601A6C00221A6412
:10021000FEE7C046287C0000297C00002A7C000004
:100220002B7C00000000002038000020FF030000AD
:100230002800002008040000240000200C04000016
:100240002C000020D5030000180000201C00002016
:1002500020000020FF00FFFF00E100E000ED00E0D3
:10026000034A002313708022D20513707047C046E2
:1002700010000020064B00221A708023DB0559690C
:10028000044A0A405A615969034A0A405A61704750
:1002900012000020FFFFFFFEFFFFFFEF10B5A023BD
:1002A000DB051C7A0F2214401E4A9B7A1278012C1F
:1002B00002D11D4A138006E0082C0AD11B4B1A7884
:1002C0000832D2B21A7000F03BF8194B1B689847FD
:1002D0001BE0022C0DD1082A01D0012A01D1154BB7
:1002E00002E0114A1380144B1B68984700220F4B01
:1002F0000AE0042C09D10C4A13800F4B1B68984765
:100300000A4B1A780832D2B21A70064B01221C70BE
:10031000A023DB051A72094910221A7200220A7002
:100320001A7210BD34000020360000203500002075
:100330001C000020200000201800002008000020E1
:1003400000B5184A184913880978CB18DBB2E22B9C
:100350000CD002D8E12B23D104E0E32B0ED0E52B07
:100360001ED115E0114B1978114B197012880F4BE3
:1003700012B25978E2239A1A0D4BD154094B1A88BC
:100380000A4B12B29978E3239A1A094BD15407E029
:10039000084B1A68064B1A60074B1A68074B1A601D
:1003A00000BDC04636000020350000202C00002093
:1003B0000C000050240000202800002010000050F5
:1003C000034A002313708022D20553707047C04641
:1003D000110000207047FFFFFFFFFFFFFFFFFFFF3F
:1003E000FFFFFFFFFFFFFFFFFFFFFFFFFFFFFFFF1D
:1003F000B6CDCA04000000000000000000000404A4
:100400004D314830434F3532FF530000FF7B000031
:10041000F0B58BB003F09EFCD64BD74E1B68002581
:100420000793D64B03241B680893D54B1B6809938D
:10043000013CFC21305D890001F034FCA20007ABD7
:10044000D358984203D0CF4BFF221A550125002CD8
:10045000EED1002D4ED0CC4BCC4AC0211360CC4AFB
:1004600049001360CB4ACC481360CC4B02225A504F
:10047000C02191405C5820405850C9490424086963
:100480002043086162B61A608023DB051A6C802263
:1004900012021A641A6C8022D2011A649A688022AD
:1004A00052009A60BF4B1A78F123AA2A0DD1BE4997
:1004B000BE4A00200856BE491278097852B2801808
:1004C00049B2884201D1131CF133DA00D21A9200EA
:1004D000D3181A01D31A1A12C82312061B04134385
:1004E000A022D205916893608023DB051A6C00225C
:1004F0001A64FEE704F0D0FB05F070FBAD4B1B68FF
:100500009847AD4CE37A002B0ED000F049FBAB4B83
:100510009A785A7002F06EFEE37A002BFCD1A8485C
:10052000A849702204F0A8FDFF240394A64B1A7872
:10053000002A2ED1A0493731097848424141112083
:10054000401AA24903900870A1490A7001221A704A
:1005500000F026FB994B9A785A70964B1B68984787
:1005600002F048FE01F0F6FB8023DB051A6C7F21C8
:100570008A431A6400F024FB02F0D2FF01F0EAFB88
:1005800001F0A2FB934B02201B689847924803F0AE
:1005900093F9924C2378002B03D1914B1B78002BBD
:1005A00011D000F019FB2278884B002A04D068464D
:1005B0000C21085C187001E012221A70874A00238F
:1005C0001370874A1370874C2378002B03D1864B16
:1005D0001B78002B03D003F099F80028FBD1824B45
:1005E0001B78237000F010FD784B69461B78CB74A4
:1005F0005BB2102B13D002DC002B7CD0F4E1112B6A
:1006000003D0122B00D0EFE141E0714B00221A70B1
:1006100000F0B4FB754B1B78002B00D0E4E1714B6C
:100620001B78002B07D06323009300200121704A20
:10063000022303F0C2FB614E707803F075FB604C3F
:10064000E07B03F0FDF86B4D2860207C03F0F8F8A8
:10065000594B6860E27B1B7C5343AB603378E57F8A
:1006600070785D4364235D43A3795D4304F066FBCA
:10067000E67BE379311C4143281C994004F09AFC45
:100680005D4D2860217C704304F094FC6860504C00
:1006900000260125267001F05BF8257000F090FA25
:1006A00003F07EF803F0F8FB454B80245B19DB7FF9
:1006B0002F1C0593E40509E003F082FCA36C0136CE
:1006C0003B43A36403F0E8F803F06AF8059A802539
:1006D000ED05B242F0D103F0EDFCAB6C0122134307
:1006E000AB6403F0D9F800F0CBFC002800D11DE783
:1006F000364B00221A7000F0E5FD364C03202368CB
:1007000098473E4B01271F708023DB0559698022E3
:1007100052040A435A6123680520984703F040F8C1
:10072000374D384E264B321CDB8A7842291C04F0A8
:1007300053F9354B2A881A8032885A80294B1B7806
:10074000002B04D00C2002213A1C03F040FB23684C
:100750000620984703F006FD002857D18022D205D5
:1007600051690123090E0906194351611C4A13708E
:1007700033E1C046F003000028000020F0530000E1
:10078000F07B00002C000020D503000018000020A2
:100790001C00002020000020FF00FFFF00E100E01F
:1007A00000ED00E0287C0000297C00002A7C00008D
:1007B0002B7C00009000002070100020C010002052
:1007C0008C130020480E0020EF000020B80E0020FF
:1007D000EE0000205002002010270000F000002052
:1007E000F1000020EC000020ED000020F8000020C7
:1007F000C110002014040020440200201200002038
:10080000CE1A0020D01A0020DA1A0020C249002394
:100810000A689A4202DD4B68D318DB0FBF4C0420F4
:100820002370BF4B1B689847BB4ABE4B5168BE4DF7
:10083000126819805A802B78002B04D018200221CE
:10084000642203F0C4FA2378B84C002B14D02B7820
:10085000002B03D00020102103F0A2FA2368022B02
:1008600002DC013323608EE000F070FDB04B1222F9
:100870001A700023236086E0236001F019FBA84C66
:1008800007202368984701F0C1FAAA4B30331B7840
:10089000002B01D003F0E6FF23680920984702F0FF
:1008A0008BFFA54B1B78002B13D104F03BF90028DC
:1008B0000FD100F04BFD9E4B12221A708023DB05F6
:1008C0005A690121120E12060A435A6102F0A8FF6A
:1008D00083E002F0A5FF924C0B202368984701F0BB
:1008E00005FB23680C20984702F0D2F802F016F9B5
:1008F00002F050FA23680F20984702F0A5FA236807
:10090000102098478D4B8E491A688E4B002A0CD0C8
:100910008D480A780078904204D901320A70012289
:100920001A7004E000221A7001E00A701A70874BF6
:100930001B78002B03D1804B1B78002B03D1814BFC
:100940001B78002B07D08023DB055A690121120E8A
:1009500012060A435A6100F005FD00283DD0704B95
:1009600011201B689847734DEB7A002B14D000F0D0
:10097000EDFCEC7A002CFCD175487649702204F02D
:100980007BFB754B1C708023DB055A690121120E1D
:1009900012060A435A6120E0704B1A68704B002A15
:1009A00004D166490968002900DD1A7036351978C6
:1009B0002A78914201D300221A701B78002B08D1AB
:1009C000574B12201B689847664B1B68984702F0EC
:1009D00093FA634B1A7801321A7000F037FE624BBB
:1009E0000020185600F0E0FD4D4B14201B686C46AB
:1009F00098475E4BE47C1C705D4B1D78002D00D049
:100A0000FEE75C4B1B78002B00D18FE55A4E337804
:100A1000002B73D18AE53B785BB201336FD03C7811
:100A200063B2022B4BD004DC002B08D0012B5CD12D
:100A30003EE0042B53D04ADB052B56D124E03A4C40
:100A40002378002B03D14D4B1B78002B03D002F0F1
:100A50005DFE0028FBD14A4900220D680A60494921
:100A600001230B704849237048780724A04318439A
:100A70004870464916200B6045490B70454B1A706B
:100A8000274B1B68984730E000233C4A33701178AD
:100A9000254A172011703A4A3C49156001220A6024
:100AA0003B490A703B4A13701D4B1B6898471CE07A
:100AB0001B4B18201B689847354B1C7015E0184BD2
:100AC00019201B689847324B01221A700DE0144B15
:100AD0001A201B6898472E4B01221A7005E0104B14
:100AE0001B201B6898472A4B1C702B4BFF221A7047
:100AF000264A2A4B1A6002F0B3FD00E0264F3378F5
:100B0000002B88D1144B012268460C211A70085C16
:100B1000074B18700AE5C04684010020D81A00204F
:100B200050020020DA1A0020EC0000208001002092
:100B3000B80E002070100020AE0200200414002027
:100B4000F2010020F3010020F4010020F701002051
:100B50008C130020480E0020EF000020A801002088
:100B600038020020580200203A01002049000020ED
:100B7000F2000020EE000020F3000020ED00002035
:100B800038000020FC1300204C1B0020F403002040
:100B9000151000209800002070130020D41A0020A7
:100BA00010B504F0DBF8054C00202368984704F0EA
:100BB00001F923680120984710BDC046500200206B
:100BC00008B502F0EDFD8023DB059A6C01210A4394
:100BD0009A6402F061FE08BD10B54C4B1B78002BE7
:100BE00008D04B4B1B68984701F0FEFE02F084F9D9
:100BF00002F060FD474B02211A6880248A431A6084
:100C00001A68E405A168A2601A6808218A431A607C
:100C10001A68A168A2601A6804218A431A601B68D6
:100C2000A268A360394B18783B4B1B78002823D06F
:100C3000002B03D00020052103F0B2F822688023A6
:100C40005B0213432360226880235B041343236009
:100C5000C046C046C046C04662B6304B226813400C
:100C60002360BFF36F8FFA20C00002F025FE2268D8
:100C70002B4B1340236015E0002B02D0062103F01C
:100C80008FF8284802F018FE274B1B78002B09D15B
:100C9000264B1B78002B05D1254B1B78002B01D14F
:100CA00002F0A8FA1B4B02211A680A431A6019685D
:100CB0008022D205906891601E49C87E08210028D4
:100CC00006D018680143196019689068916005E0C2
:100CD0001868884318601968906891601A68042140
:100CE0000A431A601A688023DB05996812489A60E3
:100CF00002F0E2FD054B1B78002B06D00F4C0E20B6
:100D00002368984723681520984710BDF0000020FD
:100D10009000002000000020EC000020FFFFFFFEFC
:100D2000FFFFFEFF40420F00F3000020F400002010
:100D3000ED00002070100020204E00005002002026
:100D400073B50B4C0B4E0FE0351B142D00DD142535
:100D5000094B1B78002B06D00020E9B2221C02238D
:100D6000009003F02AF86419B442EDD373BDC04675
:100D7000441D002000200020EC000020F0B589B0C8
:100D800002F0DEFB02F0C2FC011EFBD18C4B1B7893
:100D9000022B03D08B483E2204F0ACF98A4C8B4FD7
:100DA000E0888B4D05908B4EB8792978F37908410E
:100DB0004100D800181AC0000131E0304843727970
:100DC00061889040490104F0A7F882B2E2800420D3
:100DD000D2B2052102F0F4F93A7A2B788025ED059C
:100DE000D21A07212B6C0A407B4912020B40134395
:100DF0002B646037B2783B782E1CD318DBB22B7192
:100E000002F0CEFC3C78640027E0B36C012213436F
:100E1000B36402F041FD002C0BDD6E4B6B4A9B78F6
:100E200060321278013B9B1A1B19DBB2337102F05E
:100E3000B7FC6A4B6A4FDD780CE0013DEDB2012151
:100E40003A88281C494204F057F86A011219654B88
:100E50009200D050002DF0D1013C631CD5D1624BE3
:100E60001B78002B11D0594B0120603319780823CF
:100E700000935E4B49005B7D013101935B2302933C
:100E8000C9B2584A802302F0AFFF002004904F4FB0
:100E90003CE0504B80259A783B1C60331B78ED0575
:100EA000D31ADBB22B7102F07BFC0024454E25E007
:100EB000AB6C01221343AB6402F0EEFC4C490B789F
:100EC0005A00944208DA434A92780132D31A1B1925
:100ED000DBB22B7102F064FC414B6A461B8807A908
:100EE0001E32201C03F078FD6B469A8B338899B232
:100EF000914200D2131C3380013402363C480378FF
:100F00005B009C42D4DD049901310491394A049874
:100F100013789842BDDB02F003FB374B603739781A
:100F20001E78364B01221D78521A264B0020344C75
:100F30008C460CE01F88998879185F8871436F434D
:100F4000CF19BC4201DBBCB2101C01320233944504
:100F5000F0DC204B61469A781018C0B25870224BD2
:100F60001B78002B08D0490001310020C9B2154A76
:100F70000423009002F021FF1B4B1B78002B06D0AE
:100F8000002001211F4A0223009002F016FF69464B
:100F90001422521811880C4B1278D9800420052194
:100FA00002F00EF9094B0722197A8023DB05114064
:100FB00009481A6C090202400A4309B01A64F0BDDC
:100FC000F80000203C010020600200208C1300206B
:100FD0007A010020C0100020FFF8FFFF3D0E002026
:100FE0007C01002024040020EC0000207010002070
:100FF000EC130020EB1300204C0000204B000020DD
:10100000FFFF0000C110002038B5164B164D1B68BD
:10101000002B04D001232B70FFF792FEFEE7134C48
:101020002368DA0001D5FFF78BFE2B78002B18D050
:1010300023685A0115D50E4A0E4B11881A201980C3
:101040005188598091889980D2880521DA800A4A8E
:1010500012781A810A2202F0BAFE2268074B134066
:10106000236038BD441D0020EC0000203800002023
:1010700060020020DA1A0020C0100020FFFFFFFBF2
:10108000F0B585B00023ECE0FFF79AFD7D4E337894
:10109000002B76D07C4B1C78002C0AD1A022211C7E
:1010A000D2007A4804F026F87948211C0A2204F07C
:1010B00021F8784F3B781FE07C781AE0764E013CAF
:1010C000E4B2728A291C201C03F016FF6E4E6201E6
:1010D0003178724B5219002902D19200985008E0E1
:1010E00091005B585200C01A684BD15E814200DA11
:1010F000D052002CE2D12B1C5D1EEDB2002BDBD1B7
:10110000674B684D1C78684E17E0634B013CE4B2B6
:101110009A8A285D315D03F0EFFE5B4B634A1978D4
:10112000A300002901D1D05007E0D3586200C01AB3
:10113000574BD15E814200DAD052002CE5D1524BA0
:101140001B78002B1DD05A4B1B78002B0CD0514B19
:101150000522197800925B780320019352230293B1
:101160004A4A402302F040FE514B1B78002B08D026
:101170004B4B0320197871230093454A052302F055
:101180001CFE4C4B1B78002B66D0424B80245F78B2
:10119000494D023FFFB2240616E03E490E78023E5A
:1011A000F6B20DE03C4B381C5A8A311C03F060FD4E
:1011B000844200DA041C854200DD051C013EF6B2C3
:1011C000002EEFD1013FFFB2002FE6D13B4F0426A6
:1011D000013EF6B2331C0C335B00FB189879D979C9
:1011E0002D4B5A8A03F044FD844200DA041C8542E8
:1011F00000DD051C002EEBD1314B1C805D802C4B9B
:101200001B78002B04D0301C0221542202F0DFFD99
:10121000234B80251C78284E2D06224F0EE0224AB3
:10122000013C1D4BE4B2385D115D9A8A03F020FD4C
:10123000854200DA051C864200DD061C002CEED13A
:101240001F4B1D805E801A4B1B78002B04D0201C86
:1012500002216B2202F0BBFD0A4B1A780A4B1A706E
:101260000123084E3278002A00D00DE7114A127887
:10127000002A00D008E73178034A05B00120584021
:101280001170F0BDF5000020F60000204815002088
:10129000821300203D0E00208C1300202404002027
:1012A00041100020410E0020A902002094020020DD
:1012B000EC000020F7000020FFFFFF7F70100020EF
:1012C000DA1A002010B51B4B19781B4B1A781B4BF0
:1012D000002A04D000241C60A1420DD11DE0184A50
:1012E00018689268904201DA01301860012914D020
:1012F0001B68934211DB0124124B1B78002B05D095
:10130000211C0E31C9B2002002F04AFD0C4AA30094
:10131000D2580D4B1A60074B1C700B4B1968802379
:10132000DB055A690902120E090A12060A435A61BC
:1013300010BDC0464A000020F701002088000020B0
:1013400014040020EC0000201400002008B501F077
:101350004BFB034B1B68984701F0CEFD08BDC04610
:1013600058020020F7B57A4B01241A68794B002AFD
:1013700006D1794A1468621E9441E4B2002C02D06E
:1013800000221A6005E01A6874498A4201D00132CD
:101390001A60734A002313709C423AD1714B19783A
:1013A00000290BD01978012249B2022900D10A1C68
:1013B0006B4901250A7000221A70C7E06A4B197840
:1013C000002905D01C70694B012515701C70BDE00B
:1013D000674B1D68002D07DD013D1D60012D18D1F3
:1013E0001C6003231370B1E0624A634962321288C1
:1013F0008A420ED06149098891420AD3604A554811
:10140000111C383109780068884202DB39321278C1
:101410001A605B4B01251A1C3A321078002800D064
:1014200094E0002C21D1574A48331B7812689A4225
:1014300015DB554B1B78002B03D0201C122102F02A
:10144000AFFC524B4E491A68493101321A60097893
:101450008A4204DB00221A60414B02221A704C4A75
:1014600000231370474A136036E0414B1860494B24
:101470001B78002B30D0414D474B2A881A80474AB1
:1014800012885A80404B1B78002B03D0022119226E
:1014900002F09DFC3A4928880B1C0833DA8F3C4B3C
:1014A000904212D23D4A1088324A653212789042F8
:1014B0000BD21B78002B0FD1324B48311A680978B8
:1014C0008A4209DA01321A6006E001221A702D4AB6
:1014D000002313602D4A13602E4B01251B78002B2F
:1014E00034D12F4B1B78002B2CD01F4B1B78002B9B
:1014F0002CD1234E2B4BB71C1868331DD98FFF8F6F
:10150000B31DDA8FF38F009703F0E4FCF28F1A4BD0
:101510009A420CD0194B1B88834208DB1F4B1A8858
:10152000144B65331B789A4201D3104B1D70002C6D
:101530000BD00E4B1B78002B07D00B4B01221A70DF
:10154000002503E0094A137000E00125281CFEBDB8
:10155000041400202C010020F8010020FFFFFF7F71
:101560003A0100201B010020380100203901002031
:10157000280100208C130020FFFF0000CE1A00205D
:10158000701000201C010020EC000020240100202D
:10159000200100201A010020DA1A0020D01A0020B1
:1015A000AE0200208401002038B500283BDD02286F
:1015B00005DD032837D11C4B11221A7033E01B4C78
:1015C0001B4D02280BD1201C1A49702203F054FD38
:1015D00000232B70184B0E201B68984712E0174B06
:1015E0001B78002B03D00020112102F0D9FB201C16
:1015F0001349702203F040FD01232B700E4B0D2088
:101600001B689847FFF7CCFA0E4B4A331A78064B03
:101610001A701B78112B04D10B4B9A785A7002F078
:10162000ADFA02F0E5FA38BDB80E00208C130020A8
:101630001A010020480E002050020020EC0000207B
:10164000C854000070100020C0100020F7B5394BBE
:101650001B785BB2012B62D1374A0021537D019187
:101660004BE0354A147D45E0344B013CE4B25A8AE4
:10167000211C301C03F040FC3049051C4B78002B2A
:101680000FD02F4A1378002B02D0135D5D4304E086
:1016900072012C4B1219D35C5D432B4B1B685D43CD
:1016A0002D13254BDB7C002B19D0244B671C5A8A49
:1016B000391C301C03F020FC20494B78002B0CD047
:1016C0001F4B1A78002A02D17301DF191D4BFB5CF6
:1016D00058431D4B1B68584300132D186D107201A1
:1016E00012191A4B9200D358019A1B0CED1AAA42F8
:1016F00000DA0195002CB7D1331C5E1EF6B2002B28
:10170000AFD10E4B01990533DB7F994207DB802374
:10171000DB055A690121120E12060A435A61802321
:10172000DB059A6C01210A439A6402F0B5F802F0D5
:10173000A3F8F7BD4A000020701000208C13002091
:10174000FA0000203D5900003C1000202404002035
:10175000F0B55D4B0722197A8023DB0511405B4C05
:101760001A6C090222400A431A640121A02287B0A0
:1017700049421201564803F0BDFC0121A022494212
:10178000D200544803F0B6FCA02253480021920036
:1017900003F0B0FC514B00259F787F00FFB272E050
:1017A0004F49EC170023CB5EDA0F9D425441E4B25F
:1017B000201C02F0C5F8002C67D1FFF701FA494B55
:1017C0001B78002B0CD0484B032299780092DB78D1
:1017D00005200193702302933F4A202302F004FB6B
:1017E000404B1B78002B0CD03F4B04229978009281
:1017F000DB7801200193732302933C4A802302F09B
:10180000F3FA384B1B78002B03D00120722102F031
:10181000C7FA354A537818E0334A730114780593B0
:1018200010E0013C0599E4B20B19294A9B009B5832
:10183000023307D0301C211C00F060F8002801D0D2
:101840000135ADB2002CECD1331C5E1EF6B2002B7C
:10185000E2D1274B274E1C7811E0013CE4B2264B25
:10186000305D195D42015218194B9200D358023372
:1018700005D000F043F8002801D00135ADB2002CAE
:10188000EBD1013FFFB2FE2F8AD1164B1B78002B04
:101890000CD0154B032299780092DB780520019338
:1018A0001E2302930C4A202302F09EFA064B0722C5
:1018B000DC798023DB05224004491C6C12020C40B9
:1018C000144307B01C64F0BD8C130020FFF8FFFF29
:1018D0002404002048150020C810002060020020C9
:1018E00072130020EC0000203D0E00200641004055
:1018F00041100020410E0020A9020020F7B5821CF3
:10190000CB1C9201D218364B5200D35A354A128B57
:101910009A4203D9802252019B189BB24201324F56
:1019200052189400E559A446304C9D4209D36646AE
:10193000F351A456002C36D02D4F5200EB1ABB5257
:1019400031E02B4F5600BF5F0197013720D0A65CD6
:1019500077B2BC46013708DA771CA754019F7D197E
:10196000AB420CD90236A65409E06746002F0FDDC2
:10197000771EA754019F7D19AB4200D2A6544001A7
:1019800041180222184B89005242CA50012025E01A
:1019900042015218A656013605D10026A654144C11
:1019A00052005B1B13534201114B52185400E45E6A
:1019B0000E4B013402D09A56002A05D0420152182B
:1019C0009C5C65B2002D06DD400141185A5C002088
:1019D00001325A5402E0013C9C540020FEBDC04636
:1019E000004000408C13002024040020C810002078
:1019F00048150020F0B585B0061C0127002808D145
:101A0000804BA0221F788048311C92007FB203F0E7
:101A100071FB7E4B0122013F1A60FFB2ECE0FFF741
:101A2000CFF87B494C7870E07A4B013CE4B201215D
:101A3000DA8A201C494203F05FFA754B01901D7849
:101A400061E07449013DEDB24A8A201C291C03F073
:101A500053FA012E1AD1019A0023824200DD131A93
:101A60006A4A116800290BD06B49098809B28B4278
:101A700004DC6A49098809B28B4201DA002111604D
:101A800061014919664A49008B523CE0022E10D18F
:101A90005E4B1A68002A31D05F4A128812B2904217
:101AA00004DC5E4A128812B2904227DA00221A60E1
:101AB00024E0544B1B785BB2013B9F421EDA63016A
:101AC0005B19574A59008A5E4F49121ACB5C934200
:101AD00000DA131C4D4A116800290BD04E490988C1
:101AE00009B28B4204DC4D49098809B28B4201DA04
:101AF000002111606101444A49198B5463015B194B
:101B0000474A5B009852002D9BD1002C8CD1454B4D
:101B10001C786DE04449454A013CE4B20B5D115D1F
:101B20003C4D6A46D17301930121EA8A181C49424F
:101B300003F0E2F96B460290D97BAA8A019803F080
:101B4000DBF9012E18D102990023814200DD0B1A26
:101B50002E4A116800290BD03549098809B28B42F9
:101B600004DC3449098809B28B4201DA0021116092
:101B7000314A61008B523BE0022E10D1234B1A6890
:101B8000002A32D02A4A128812B2904204DC294A32
:101B9000128812B2904228DA00221A6025E0194B0E
:101BA0001B785BB2013B9F421FDA244B224A195734
:101BB0006500CB43DB179C46AA5E6346121A0B40B6
:101BC000934200DA131C114A116800290BD01849FE
:101BD000098809B28B4204DC1649098809B28B4294
:101BE00001DA00211160154A1355134B6200D052DF
:101BF000002C8FD1013FFFB2FF2F00D00FE705B0BF
:101C0000F0BDC04648000020C8100020F4030020AA
:101C10003D0E00208C1300204000002042000020D8
:101C20004815002041100020410E0020A90200208C
:101C3000440000204600002082130020511B002099
:101C400030B580230B4D0C4C5B00013B1A0609217B
:101C500006E05000002A02DA2A1C424000E0021C82
:101C60000139C9B20029F4D199006250002BECD19E
:101C700030BDC046B71DC1042404002070B5031C4C
:101C8000012040420022064C07E09E5C050E754094
:101C9000AD0065590002684001328A42F5DB70BD33
:101CA0002404002070B5074C0D1C23788602002BFD
:101CB00003D1FFF7C5FF01232370A9B2301CFFF742
:101CC000DDFF70BD98000020F7B51E4A00201060AF
:101CD0001D4E1E4A012149425160321C0832D27FFA
:101CE000317D501E44426041194C081A0190206019
:101CF000301C28300578777D6B1E58425841009083
:101D0000381A6060012A02D10023238104E0708D1B
:101D1000490003F04FF92081012D02D10023638196
:101D200004E0B08D790003F045F96081064B5B8DCE
:101D30005800C018019B590003F03CF9044BD860CF
:101D40001861F7BD0414002070100020200200204C
:101D500028100020F0B5294B87B0587D1B7D011D50
:101D60000493274A00241CE0049E8D0105360023BD
:101D700003950596039FFF1802977D00575B545308
:101D8000059E039FF51A7D1901956F00D55BD4530D
:101D9000029F1C4E0025F555019F0133F555032B7D
:101DA000E8D1174D174E0139DED2144BC41C1B7DF0
:101DB00002300022A40180010633111C0394049018
:101DC000013B5C002F5B2A530398C4186700E85B53
:101DD000EA53F15431551C1C403464002F5B2A53E4
:101DE0000498C4186700E85B0748EA531F18397065
:101DF0003155002BE4D107B0F0BDC0467010002073
:101E000000400040002000404020004013B5204A20
:101E10002049131C5B3309781B78994203D8131CA3
:101E20005C33197802E0131C473319781A4B64327B
:101E300012781B785343194A9B090820125E93427B
:101E400000DA131C124A4B430532D27F9B11934296
:101E500000DA131C124A08201360124B1B689847C3
:101E6000114B0F4C1B78002B07D01F23009317201A
:101E70000121221C052301F0A0FF80232168DB053E
:101E800098690A4A0905090902400A439A6113BD83
:101E90008C1300200804002010040020840100207E
:101EA0007413002050020020EC000020FFFF00F01F
:101EB00000B50B4B0B4A0733DB7F002107E0013BEA
:101EC000DBB2181C1030C000101881804181002B3B
:101ED000F5D11360044A136001235B42536000BDD7
:101EE0007010002004140020F8010020F0B5A0229A
:101EF0008FB000219200A84803F0FCF8A74EA22260
:101F000000215200301C03F0F5F80F227F20FF2142
:101F1000131C40339B00013AF318D2B29871187128
:101F2000D9715971FF2AF3D19D4D9E4FAC680022A3
:101F300001947B7D9C4C019FA281BB4202DD013755
:101F40000197AF60E8680590002802DB0138059032
:101F5000E860944C2B68227D9A4201DD01332B60AE
:101F60006B68002B01DB013B6B60904F5B23FA5CDD
:101F70008F4B1B789A4200D263E2019C059F00239D
:101F8000BC4200DAFDE02868884F696804905D2350
:101F9000FC5C019F8C46874903970498604519DBD8
:101FA000039A031C02329201009204E0013B505A52
:101FB000575263450EDB009FDA1CBA185200505A84
:101FC000071BBFB2A042F1DC505A013B0020505227
:101FD0006345F0DA039A059B013A03929A42DCDAF0
:101FE0002C686B689C4200DAC2E0019B68460233B1
:101FF00000799B010493089069E06E4F013AD2B2D8
:10200000CB5B079268460799019F838110329BB290
:10201000009288005F4391001A1C62430297624F4E
:102020000692BF893018013705974268029F7118E0
:10203000D21942604A68009F9446069AFF00944471
:10204000604648606A461420805A574A0297908139
:10205000F7197989079AB8880C3140320291C01873
:1020600091000591B88069460820415A7981059F01
:102070000421F0194156019FB94200DD077191001A
:10208000711805200856019FB84200DA4F7191007F
:10209000711806200856A04200DD8C719200B2181B
:1020A00007215156A14200DAD4710098C200B2183B
:1020B0000627D15F8B4206DD68466946808909792B
:1020C000D080547211726B68013CA34250DC049FB3
:1020D000E31C3948F9180A5C102A00D9F2E04900DB
:1020E000002A00D089E733480F5A002FEBD00D9219
:1020F000E1B2002203200291059200909C462F49F4
:10210000009B2F48CA5C0899C35C02988A18C318C0
:1021100052B202325BB2920103332749D3185A5CA0
:102120006846531E02730F2B19D805990020002909
:102130000FD06A460C23D35699420AD0002201E000
:10214000994206D00132D2B20DA8815C101C002940
:10215000F6D169460A7B0DA90A540B7805930098BD
:10216000002800D1B1E0031C013BDBB20093C6E7BD
:10217000019CEB68013C0194A34200DC30E784231E
:10218000F35A084C074F647D002504943F7D0024DA
:102190000597019400275EE0C8100020B0020020DF
:1021A000701A002070100020840100208C13002081
:1021B000080400200040004000200040AC51000016
:1021C000B0510000741903948A3420880C210094C3
:1021D00002F0A2FE009A0199039B741810808433C8
:1021E00060680022995EC001009102F0E3FE636C1A
:1021F00060600099D80102F0DDFEA31D6064FF332A
:102200001A78049851B2884201DD01321A70631DB8
:10221000FF331A7851B2002901DB013A1A709D4947
:10222000059863181A7851B2884201DD01321A709C
:102230000734FF3423785AB2002A01DB013B2370B4
:10224000019C0137043408350194102F00D1FFE0C0
:10225000731984331B88391C002BB3D131608E4E27
:102260003D21715C8D4A00918D4B3C21715C1B7846
:1022700015680191002B15D0013BDBB2894F590045
:10228000CC5B21B2002912DD181D874E4000865F0D
:102290001452002E10DD009FB94206DA002181524F
:1022A000002BE9D10FB01560F0BD0135E2E7191D33
:1022B000490000205052DDE7019CA142F5DA0026DA
:1022C0008652D7E700220A54FDE6059963460029A5
:1022D00000D1F8E6352068440278002A00D1CAE02F
:1022E000362169440A78002A00D1C2E037206844C8
:1022F0000278002A00D1ADE004996C48CB18152271
:102300001A5403210422B810029103920199221C4D
:102310004143424383B207910A930399644B099264
:102320005B5C404206930B90A44602E00DA8C05CA3
:102330000590059A0798013A52B2111C9200B21802
:10234000546810318B00F3182418546009985C68A5
:10235000C900241800985C6001307118C0B28A88E6
:102360004B890A9C00900698A218C3184B818A805A
:10237000009B0B99029C7F18A342D7DB64460DA9F2
:10238000CA5C019B391C7B436143013A52B2101C69
:10239000920000931030B2180790059183000099C5
:1023A0005068F3188446081C596860448C460599A7
:1023B000506007988C446246C1005A6071188B883F
:1023C0004A89FF18069B8F80029F9A184A81002F26
:1023D00000D178E601370097039F012301370021E0
:1023E00006979C46039F58B2B84224DA0DAA515C66
:1023F000421C0139C9B24F010297079307E02D4FE4
:1024000005983B54069F101C0132BA4212D00DAB06
:10241000185C029F0138C0B243013F1805975F184E
:1024200063468842EBD82348C355069F101C0132EF
:10243000BA42ECD1079B0098191C01338342D1D1D9
:1024400041E6019C059F0023BC4200DBC8E598E6FD
:10245000102103E70322049814490392C318113290
:102460005A540399381C0A1C013A029202F0A2FD48
:102470004CE70222EFE704980C49C31812225A5481
:102480000B4B00225B7802920693012303930023F7
:1024900075E7C046070100008C130020F8010020FA
:1024A00041100020821300200C0200200020004078
:1024B0004E000020C8100020F0B5431C8DB0944F92
:1024C000041CDBB210300B93C300FB1803930E1CEB
:1024D0000790151C0422995E331C10330993DB000E
:1024E000FB18059104930421585EA300FB180A937E
:1024F000B300059AFB185B680A99121843430892C7
:102500000690059A486808995043181802F052FD41
:102510000A9B00B25860079809998300FB1807933B
:102520008B00FB185B68069A079953434868059A25
:1025300008995043181802F03DFD079B00B25860FF
:10254000201C403080003818291C0422043002F07E
:1025500093FD0498039AC3880621515E1AB29142F2
:1025600006DA03980499C3804B7A43720B7A03729C
:10257000221C331C10321033D200DB00FB18BF18B2
:102580009988BA88A4468A18BA8059897A898A189B
:102590007A81F2B2101C013040B20590059F6001B3
:1025A00000213818998003920B1C5A4A06900EE0BD
:1025B000069C059F101974013C191419C75C0494FA
:1025C000E45C2743049CC7540020E05401330131EC
:1025D000039FC9B2C81940B20F28E9DD6446600103
:1025E000911900238218AC4611E0A34205DA881B3A
:1025F000055D0F782F43075505E0A34203DD0D78F5
:10260000D05C2843D0540020087001332031B342FD
:10261000EBDB65462878A44641B202310C1C61E030
:10262000AF78A11E7BB2A20103330A9106920790F4
:102630004FE0D81E069909903748CA18125C6946BF
:10264000013AD2B2049210204256112A3EDD0122F4
:1026500052420021079803920591042202932F49C8
:10266000013AD2B28B560A99CB18023308932C4BFD
:1026700009999B56C9180331079108998B0107994D
:102680005B182549CB5C591EC9B20F290FD849B236
:10269000614501D0B1420AD1039B013303D0039BB2
:1026A0008B4202D103E0039101E001210591002A50
:1026B000D5D1059A0790029B002A07D00698694653
:1026C0001022525C1449C01803900A540137FFB21B
:1026D0000133032169567AB29142AADA079801348C
:1026E0000130C0B20122AA5643B29A4298DA2F783A
:1026F00064467BB20233039354E0AB78002258B2B5
:10270000410006900748A446091808912CE0C046ED
:10271000B0020020C810002000200040AC51000092
:10272000B0510000DA1A00200699039C0331891881
:1027300004910498A4012018494905940790445C29
:10274000013C64B2B44202D10BAC24780C54049C1A
:102750000598013300190490085C089C5100611829
:1027600040B24880DBB20132E9785CB248B28442C0
:10277000DADD3C4B64461B78002B0ED0AA783A4B2E
:10278000891A52B20132002001315200D218009051
:10279000C9B20720052301F010FB0399013701316D
:1027A000FFB203910122AA567BB29A42A5DA2E4FBC
:1027B000631C3B80731C7B802A4B1B78002B04D04E
:1027C000072002210C2201F002FB284B4034A40018
:1027D0001C190422A2563A800522A2567A800622AB
:1027E000A256BA800722A256FA801E4A1F1C1278EF
:1027F000002A04D007200421002201F0E8FA403624
:10280000B600BF190423FB56174C23800523FB5643
:1028100063800623FB56A3800723FB56E380114BFE
:102820001B78002B04D007200421002201F0CFFAEE
:102830000023EB5623800123EB5663800223EB56E3
:10284000A3800323EB56E380064B1B78002B04D0B8
:1028500007200421002201F0BAFA0DB0F0BDC046F5
:1028600000200040EC000020DA1A0020B002002016
:1028700010B50B78002404575AB2944200DD03705F
:102880004B78012404575AB2944200DA43708B7893
:10289000022404575AB2944200DD8370CB7803219E
:1028A00041565AB2914200DAC37010BDF0B58BB0F8
:1028B0000024231C10334648DB00C31804215A5E51
:1028C000002A00D17EE05F7A1B7A0293029A013BD4
:1028D00002329201079271E002337A1C03939B014A
:1028E0007E1E0692049365E0049AF01C394B00901A
:1028F0001118CD5C6DB2013D0F2D5AD8AC4258D0A5
:10290000354B4900C85A6946C882211C1031CA009B
:102910002F498C46944462460621525E01922F4A0A
:10292000D18D019A904244DB079851438446009828
:102930008911844460464200D25A914239DA04989F
:10294000FA1C82185200D35A994232DAA54202DAAE
:10295000231C2C1C1D1C2B1C1D4940339B00CB1819
:10296000211C1B4A403189005B688918043109A881
:102970000993FFF77DFF08216846221C184B085A6F
:1029800010321349D20018805F808A18D2889A804A
:102990006A46D28ADA80134B1B78002B04D00720BA
:1029A0000421232201F013FA201C291C09AAFFF795
:1029B00083FD0236069B9E4296DD039B029A0132FE
:1029C000934289DD01340F2C00DC72E70BB0F0BDBF
:1029D000B002002000200040004000408C13002086
:1029E000DA1A0020EC00002008B500F003F800F02F
:1029F0002BF808BD38B500210A220D4802F07AFBF9
:102A00000C4B00220733DB7F0B49101C0B4C0BE0F7
:102A1000013BDBB21D1C1035ED004D19AA80084D9D
:102A2000E054EA54074DE854002BF1D10B6038BD57
:102A30009C0100207010002004140020E8010020F8
:102A400078130020C41A002070B50C4C0123002517
:102A50005B426360291C0A2625600522084802F0B3
:102A600049FB291C321C074802F044FB201C291C8E
:102A7000321C083002F03EFB70BDC046F801002059
:102A8000511B00201C100020494340434018704750
:102A9000F7B50121494210221D4802F02BFBFFF738
:102AA00005FF1C4B1B6898471B4C0023261C23600A
:102AB000843601931F1C1D1C0021725EFBB2002A8C
:102AC0001DDD226801322260114AD5559D4214D085
:102AD0000199AA000B195968A218281C51601030DE
:102AE0005A6C8300C000E31820185A600430311C6F
:102AF000082202F0C1FA002333800135EDB2019AB9
:102B00000137043208360192102FD5D1F7BDC046E7
:102B1000F80300204C020020B0020020F0B58E4ADD
:102B20008E4B918987B0198012895A808C4B1B7803
:102B3000002B04D017200221652201F048F9894BAF
:102B40001A68894B0733DB7F934200DD131C874AE9
:102B50000121136049421022854802F0CBFA8548D2
:102B6000FF21402202F0C6FA7F4B00240733DB7FAF
:102B70000293814B1B680393804B5B6B0493794BEF
:102B80001B68059343E07E4D2B5D002B3ED07D4EB0
:102B9000A300F758039D049E7B4BAF406200BF1912
:102BA000D31801267642002501931FE02B1C103319
:102BB0006C48DA0082180421525E002A14D0019970
:102BC000AA00821850688A889B00801A654A00B261
:102BD000D318019A5968138BC91A09B2FFF754FF29
:102BE000B84201DA2E1C071C0135EDB2059B9D424F
:102BF000DCDB751C0AD05E4B5E499857B200013091
:102C000002D08858B84201D98F509C550134029E99
:102C1000E3B2B342B7D30023524A544934E0544F8D
:102C2000F85C44B201342DD0C0B2840001940D1977
:102C30009E001C1C02961034961976680394A4001A
:102C4000A4466E609444061C644610366568B7005E
:102C5000CF197D60039FF600FD008E1955190436CB
:102C6000043590CD90C61D1C4035AD00403055193F
:102C70006D68800008184560029C3E48019D205800
:102C8000404EA8510133DBB210688342C7DB0023FA
:102C9000364949E03648C056013043D1181C10303F
:102CA000C00012180427D25F002A3BD03748002208
:102CB000C57F334E33E0B75C002F2FD1D7007F188C
:102CC000843700243F5F002F28D1294C9D00E05419
:102CD0002448940045196D680C196560151C103561
:102CE0000195AF001D1C1035AE00B4468444664605
:102CF0007468019ECF197C60ED00F40045190C1931
:102D000004340435C0CDC0C41C1C4034A40040327F
:102D10000019920040688A18506003E00132D0B276
:102D2000A842C8D30133DBB20E4A10688342B1DB3C
:102D30000D4B0F490733DD7F154BFF201C1C103452
:102D40001A78AA4202D28A5C1A7000E01870013325
:102D5000A342F5D107B0F0BD84010020DA1A0020AB
:102D6000EC000020B00200207010002004140020AD
:102D700000100020801A0020540000208C13002036
:102D8000E8010020481300204410002077100020A4
:102D9000F8030020F0B5274B27490733DB7F274A8C
:102DA000274841E0013BDBB21E1C1036F5004419F8
:102DB0000427E45F002C1CD04D1904242D5F002D46
:102DC00017D09F00CD19C7196D687F685C00EF1B95
:102DD0007F107D19B6001719BD808D1986196D6891
:102DE00076681F1CAE1B0C3776107F007519BD521C
:102DF0000FE0114F9E00BE1976685D005519AE8038
:102E00001E1C1036B6001D1CBE190C3576686D00F0
:102E100056531D1C084E1035ED00751904242E5F05
:102E2000751EAE41074DEE54002BBBD10B681360ED
:102E3000F0BDC04670100020041400204410002093
:102E4000BC0E0020E801002038B51D4B00211960A0
:102E50001C4B0A1C0733DB7F1B4810E0013BDBB235
:102E60001C1C1034E50045196D89AA4200DA2A1CA1
:102E7000E40004190425645FA14200DA211C002B40
:102E8000ECD10F4C006806C410490C781049A042E0
:102E900007DB104B48331B889A4205DB01230B707C
:102EA00002E0002800D10B700B78002B07D00A4BF2
:102EB0001B78002B03D00020372100F071FF38BDB4
:102EC0006802002070100020041400205900002027
:102ED000F50100208C130020EC00002038B5041C04
:102EE000081C002A07D054435843D11820184D100D
:102EF000401902F05FF838BDF0B5504B85B007338C
:102F0000DC7F4F4E7DE0013CE4B2251C1035E9002A
:102F100051180420095E002967DD211C1431490085
:102F200059180420095E00294BDD464B1A5D464BBB
:102F3000002A02D145331F7801E046331F78A300F1
:102F4000F3185B6868460093231C10339B00F3184A
:102F50005B68019300F08AF83C4D6300EB18042293
:102F60009B5E0293231C0C335B005B5F02A8039300
:102F700000F07CF8009A029B291CD31ADA179B18E0
:102F80005340BB4207DA019A039BD31AD8171B1888
:102F90004340BB4229DBA200B21852686300CB1841
:102FA0009A80221C10329200231CB21852680C33F3
:102FB0005B00EA52234B1A5D002A16D101221A55F2
:102FC00013E0AD00A1005118521948685268204F13
:102FD000204D61004A53C85359188880211C0C3178
:102FE00049005A52174B00221A55221C144910321C
:102FF000231CD2008A18143314495B009288CB1822
:103000009A800F4A114B002C00D07CE710681249BF
:103010001860124B1A78124B1A70124B1A1C70C996
:1030200070C230C930C20122002802D11A68531E72
:103030009A410D4B05B01A70F0BDC04670100020CB
:10304000041400209C0100208C130020A801002003
:103050005A0000206E000020F8010020F501002039
:10306000F601002020020020F7010020F7B5354DC1
:10307000354F041CBA8D69680068C901504300923D
:1030800001F098FF0A23EE5E2968361826600823AF
:10309000EA5E606801927B8DC901584301F08AFFA6
:1030A000019A10182A696060964207DA35373B7832
:1030B000B61A5E43B611921922600CE0009B9E1B6B
:1030C000964208DA35373B78B61A5E43009BB61154
:1030D00092199A1A2260EB681B4A984208DA111C6E
:1030E00033310978C01A484380111B1863600CE023
:1030F000518D081A984208DA151C34352D78C01AFB
:10310000684380111B18C91A6160131C3133216890
:103110001B78994205DD928DD01A814202DB013A7B
:10312000D31A2360084A6168131C32331B78994212
:1031300005DD528DD01A814202DB013AD31A636059
:10314000F7BDC0462810002070100020EFF3088063
:10315000704700BA704740BA7047C0BA704770B540
:10316000002816DAC0B20F230340083B124A9B081E
:103170009B009B18032210409040FF225D68141CA6
:1031800084408901A5430A408240281C10435860AE
:1031900011E003248208094B2040C032A040920075
:1031A000FF24D558261C86408901B5430C40844035
:1031B000281C2043D05070BD18ED00E000E100E075
:1031C00070B50F248023DB052040DE690504074825
:1031D0000C4030402843D861D86905492405014096
:1031E000013A2143D2B2D961DA7770BDFFFFF0FF17
:1031F000FFFF0FFFF7B58023DB0598491A680E2003
:1032000000221A60086008689C6898609448954E8F
:1032100002600068DC68D860FE249348E401046022
:1032200000681C69186158695A6198699A61D8697F
:10323000DA61186C8020C0011864586C5A64986C6C
:103240008A489A640260A020C00584688260186C75
:10325000874A042402401A645868864A0240802043
:10326000C00202435A605A688020C00432400243C0
:103270005A6018688022920502431A607E487F4A8D
:1032800010607F4A10682043106010680224A04339
:1032900010607C4AD27E002A06D10A680820824348
:1032A0000A600A6899689A6000F0A2FC764B802454
:1032B000E4050533A169DA7F744B12040B40134314
:1032C000A36100F007FD724BC022520004260125C5
:1032D000022008219D50102798509E502020995080
:1032E00040219F5098509950C02292009F58FF2033
:1032F0008743C02007439F509F58381C654F384074
:1033000098509858071C6448074001978027380454
:10331000019F38439850985807023F0A27439F500F
:10332000C12292009858071CFF2087430F439F50EB
:103330009F585848384080273F0238439850985843
:10334000554F38409850554A10693043106162B665
:10335000082202201E601D6018601A60504B202059
:103360001027DF67D867D96700F0D6F9454BA16908
:10337000187D3F220630104091430143A161597DE1
:103380008819294041180A401102A069454A0240A3
:103390000A43A2619B7C002B27D0334B31491A682A
:1033A0000227AA40520E15432A061D682D480D40DB
:1033B00015431D601A68216922611A685200520E75
:1033C00017433A061F68074017431F601A682169B0
:1033D00022611A685200520E164332061E680640D9
:1033E00016431E601B682269236100F0C7FB1E4B59
:1033F000EE201A68C0012C4910401A680A400243A6
:103400001A6018688022D205146910611C68186857
:10341000A404A40E2402084020431860186814690C
:1034200010611868BE24E401044018680840204375
:1034300018601868146910611C68DE20C001204003
:103440001C682140014319601B681169136100F079
:10345000C9F8164800F030FAF7BDC0460000002059
:1034600004000020FFFFFF800C0000200800002067
:10347000FFFF7FFFFFFF80FFFFFFFF0014E000E082
:1034800010E000E0701000208C130020FFFF00F01F
:1034900000E100E0FF00FFFFFFFF00FF00ED00E0A4
:1034A00004E100E0FFC0FFFFFF80FFFFB80B00005A
:1034B000F8B5164B0F1C1B78041CAA2B23D1144BF8
:1034C00000255D57134B00201856134B2E181B7800
:1034D0005BB29E4217D1231CCC3B401B2521584395
:1034E000494201F067FD4019C3B2EDB2ED18B54293
:1034F00009D10A4A1C199278E4B21018C019FF28A1
:1035000001DDFC43E4B2201CF8BDC046287C00006D
:10351000297C00002A7C00002B7C0000C0100020C9
:10352000064B7F2219688023DB05186C0139904314
:103530001140021C0A431A647047C046181000204C
:10354000074B01211B7F7F225BB299408023DB0563
:10355000186C013990431140021C0A431A647047E9
:103560007010002030B51A4A1A4B11881A4CC9182D
:103570008023DB0589B2188C1984598C0021598469
:103580005088164D011989B29A8C9984421EDC8CA0
:1035900092B24419DA84A4B21D8D1C85104C001916
:1035A00080B25C8D5885988D9985D88DDA85188E76
:1035B0001986588E5A86988E9986D88EDA86188FF4
:1035C0001987588F5A87988F9987D98FDA8730BD96
:1035D00060020020FF070000FF030000FF0500005D
:1035E000FF01000010B51B4B1B495A7C1B4B002AE6
:1035F00015D01A6804205204520E024318681202B1
:1036000001401143196019688022D20510691161C7
:1036100018687B21084019687F24A14314E01868CA
:1036200004224006400E10431A687F24A24302433E
:103630001A6018688022D205146910611C68F6208F
:10364000C00120401C682140014319601B681169BA
:10365000136110BD70100020FF80FFFF0C000020E0
:1036600000B572B60F4B01221A700F4B5A7C0F4BEC
:10367000002A07D01A68F621C901114018680C4ABF
:10368000024005E019687B2211401A687F208243BE
:103690000A431A601A688023DB0519691A6162B649
:1036A00000BDC0468C000020701000200C000020DF
:1036B000FF80FFFF00B572B6104B00221A70104B4E
:1036C0005A7C104B1968002A08D049040422490E7C
:1036D000114318680C4A0902024006E04906042218
:1036E000490E11431A687F2082430A431A601A6800
:1036F0008023DB0519691A6162B600BD8C000020C9
:10370000701000200C000020FF80FFFF014B187894
:103710007047C0468C00002010B58023DB05196C73
:103720008022D2010A431A64164A80211068490097
:1037300001431160126899689A60196C8022120224
:103740000A431A64196C104A0A401A640F4A7F210E
:10375000107B0F4A084014680E49000421400143C1
:1037600011601068A021C9058C68886014680A4837
:1037700020401060126888688A60196C074A0A4005
:103780001A6410BD00000020FF7FFFFF70100020B2
:1037900008000020FFFF80FFFFFF7FFFFFBFFFFF4C
:1037A000044B01221A708023DB05996C91439964C4
:1037B0001A7070471000002070B5144B01221A7067
:1037C000134B144D5C7D197D023403310B1C002218
:1037D000A401114E98190270E018013B42550D48A2
:1037E000012BF6D10A4B00225B7D023306E00B4E23
:1037F0009B019D195B182A70C254231C5C1EF6D2D3
:1038000080230122DB055A7070BDC04611000020E4
:1038100070100020002000404020004002200040A6
:1038200000B5064B72B61A78002A04D0C046C046CE
:1038300062B630BFF6E762B600BDC0461100002098
:1038400038B5094B09495A78DC785143084B051CB7
:10385000C918084801F0AEFB064B291C0134584337
:10386000A14001F0A7FB38BDC010002044FEFFFFBF
:10387000FE24020040420F0000B5064B72B61A78D3
:10388000002A04D0C046C04662B630BFF6E762B632
:1038900000BDC0461200002000B5064B72B61A7873
:1038A000002A04D0C046C04662B630BFF6E762B612
:1038B00000BDC0461000002070B51349134B04240E
:1038C0001960134B134D1A6822431A601A680224B8
:1038D000A2431A601A68012422430F4C1A60002286
:1038E00022600E4A11602E78ED7870430135E84071
:1038F000091A1160206811688842FBD21A680121F8
:103900008A431A6070BDC046FFFFFF0014E000E06C
:1039100010E000E0C010002018E000E05402002099
:1039200000B50023054A984201DB537F4343127FD1
:10393000013052B290401818401800BD701000209D
:10394000F0B58DB0444B0B901D78002D13D09D7BAE
:10395000002D10D0414B99785A7898785B78C01A2E
:103960006B08914201D9C01801E0DBB2C01A291CD2
:1039700001F020FB051C3A4B9E78013E002761E0D8
:10398000391C301CFFF7CCFF029035483249C07813
:10399000314A0390497C324B0491127830480592A9
:1039A0005B782D49069300782B4A0790097B0134F8
:1039B0000891527B790109922A4A89198A180A9436
:1039C00000230192AC4636E00021741C28D0019CF3
:1039D0005801215C00900498059C4118C9B2002C44
:1039E00009D02520051C7D4358431F4CAD192C19C7
:1039F000205C604409180B9CC9B2002C10D00698BA
:103A0000824202DA079CA64201DB099803E01748CC
:103A1000089C805D20184118009C0198C9B201558E
:103A20001348029C805C620140B240101018114A99
:103A300081540A981B180399DA198A42C4DB0137AA
:103A40006546FFB20C4A1C241457A74298DD013E7C
:103A5000B31C93D10DB0F0BD8C130020C01000201A
:103A60003D0E0020C8100020805500001D590000A8
:103A7000240E00200010004070100020F0B5C31C80
:103A80008BB0DBB2071C0591002607935BE0324C3C
:103A9000002009902780311C381CFFF741FF0C22C1
:103AA00003906946515A2D4B6180DB782C4C4101C3
:103AB000012006932B4A0023091984460EE0505D2D
:103AC000AC1C40B24010E4B208188472505D6446E9
:103AD00040B284400498234301302D180698854253
:103AE000EDDB214C09932378002B04D00020022128
:103AF000692200F06CF92378002B06D00020012108
:103B000009AA0923009000F058F9039C17486201A4
:103B10001318596809996C4659601C201449045DB2
:103B200052181471059C002C08D0124A0121D25D54
:103B300052B291400A1C19681A6002E0059C1A688A
:103B40001C600136F6B20C4B351C1B7F5BB2049334
:103B50009E429CDD0BB0F0BDDA1A00203D0E002025
:103B600000100040240E0020EC000020181000403F
:103B700010100040481A00207010002038B5174C73
:103B8000607800F0D1F88023DB05E1785A68C90736
:103B9000520052080A435A60207903225D68104996
:103BA0001040800329400143596060790D495D68E8
:103BB00010400003294001435960A0790A495D681B
:103BC00010402940800201435960E17958680A4059
:103BD0001102064A02400A435A6038BDC010002054
:103BE000FF3FFFFFFFCFFFFFFFF3FFFFFFFCFFFFE4
:103BF00070B5304B304A196880240A401A601A6840
:103C0000E4052E4DA168A260A97A0322186811402C
:103C10002B4A890402400A431A601A68A168A2600C
:103C20001968802252030A431A601A68A168A260C8
:103C3000697A18680726234A3140024049050A4339
:103C40001A601A68A168A2601968A022090109090E
:103C5000D2050A431A601968F02212050A431A6055
:103C60001B68A268A360FFF75BFC636C164A042024
:103C700013436364E3690F22934302221343E36116
:103C8000E369F022934330221343E3610F4B052194
:103C90001A79013AD2B262779A79FFF791FAFFF76F
:103CA00061FCEB790A4A1E403302266C16401E4323
:103CB000266470BD00000020FFFFFCFF8C13002075
:103CC000FFFFF3FFFFFF1FFFFFFF0F006002002059
:103CD000FFF8FFFF38B5114B00211B68013B08E0DE
:103CE0000F4C5801092200198418A172013AFBD225
:103CF000013B002BF4DA012040420021FFF7BEFE19
:103D00000024084D05E0201C0121FFF7B7FE013417
:103D1000E4B2AB78A342F6D838BDC04618100020F4
:103D2000001000403D0E002000B58021C9050B7930
:103D30005A1ED2B2984209DD00E00B710133DBB2AA
:103D40008342FADD04E00A71013AD2B28242FADA21
:103D500000BDC04608B50C4A0C4B0D4901E001CA34
:103D600001C38B42FBD30B4B0B49002200E004C381
:103D70008B42FCD3FFF7EAF9084B002200E004C3B2
:103D80008342FCD308BDC046F45100003800002037
:103D90008400002088000020581B0020441D0020C3
:103DA0001FB501235B420093002302911A1C191CCA
:103DB000019300F019F805B000BD1FB506AC2478DA
:103DC000009300230193029400F00EF81FBD1FB56D
:103DD0000523009302920023024A019300F004F8A5
:103DE00005B000BDDA1A0020F7B5151C01930022BA
:103DF00008AB9A5609AB1F780AAB1E78224B0C1CF5
:103E00001B68012100930B1C83400098184239D095
:103E10001E4B501C08D11E4A032010705A780720F0
:103E200082431143597010E0002C26D01849052018
:103E300008705878072188431101022202430F209D
:103E400002400A435A70DC701F71104B9E70FFF7DE
:103E500007FCFFF75BFC0028FBD1002C0DD00D4EBA
:103E6000041C3560FFF7FCFBFFF750FC0028FBD17A
:103E7000019B0134ED18BC42F3DB044B07215A7857
:103E80008A435A70F7BDC046380000204C1B002002
:103E9000FC130020D41A0020F7B53D4B1B78002BF3
:103EA00003D000204F21FFF77BFF3A4A0123137014
:103EB000394A3A4E13703A4A13703A4B00225C7DED
:103EC000019239E0013CE4B20121F28A201C49420E
:103ED00001F012F8344B6200D052F28A738A071C48
:103EE0009A4202D280235B01C7182E4B1D7D21E030
:103EF0002A4B013DEDB25A8A201C291C00F0FCFF20
:103F0000284A0090D37C002B09D0244B691C5A8A84
:103F1000201C00F0F1FF009A101840100090009A49
:103F20000021BB1A019AD2180192620152191F4B4B
:103F30009200D150002DDBD1002CC3D11C4B019835
:103F40000022995E01F036F8758B071C194C002D84
:103F500002D14023236009E0B18B681A8001791AED
:103F600001F028F86E2800DD6E202060124B1D80C5
:103F70005F80074B1B78002B04D0002002215022C9
:103F8000FFF725FF002114220C4801F0B3F8F7BD1C
:103F9000EC00002020040020401000208C130020A2
:103FA000A8020020701000201E1B00202404002006
:103FB000261000203C100020DA1A00209402002075
:103FC000F8B5324A537D47E0304A147D41E0304B2A
:103FD000013CE4B25A8A301C211C00F08DFF2C4AAF
:103FE000051C5378002B0FD02A4A1378002B02D0DF
:103FF000135D5D4304E07201274B1219D35C5D43EE
:10400000264B1B685D432D13204BDB7C002B19D006
:104010001F4B671C5A8A301C391C00F06DFF1C4A6C
:104020005378002B0CD01B4B1A78002A02D1730155
:10403000DF19194BFB5C5843184B1B68584300139E
:104040002D186D107201164B12199200D1586D186F
:10405000D550002CBBD1331C5E1EF6B2002BB3D161
:10406000104B114D1C78114E0CE0094B013CE4B291
:104070009A8A285D315D00F03FFF0D4BA200D158B8
:104080004018D050002CF0D1F8BDC0467010002070
:104090008C130020FA0000203D5900003C10002045
:1040A0002404002041100020410E0020A90200201D
:1040B00094020020F0B5234A85B0537D127D019211
:1040C000214A0132D27F029213E0039A013CE4B20A
:1040D00016191E4BB500E858029900F01DFF1B4A47
:1040E00000041B4BA85076000022F252002CECD1A9
:1040F0003B1C5F1EFFB2002B03D07B01019C03938E
:10410000F4E7124B134D0833DA6F134B1A60134B5D
:104110001C780D4B5A1CD67F5F780FE0013CE4B24F
:10412000A3005859311C00F0F7FE002F03D00C4AB1
:10413000135D58438011A3000004E850002CEDD11A
:1041400005B0F0BD701000208C1300202404002066
:104150004815002094020020700200204110002029
:1041600010100020F0B5C64CA1B02378002B00D071
:10417000FEE2C44E3478002C00D169E2C24CC34D3B
:104180001F941D95C24D0023C24CFF222B616B6012
:104190002B606B812B811D9D2360A3606260E260B8
:1041A000EB7C002B00D05DE16A7DBB4DBB4B1D9EBF
:1041B0001B781F9C5BB21893367D2D681E96648A0F
:1041C0001F9E0C9476781D9F0D961095FF7C1F9C6A
:1041D0000E97189DA47F10231F9E5B1B0F941993AD
:1041E0002123F356AA4F0B932423F35C3F681393C8
:1041F0002223F35612971B93A54B013A1B69D2B2A7
:104200001193A34CA34D2489A24E0994A14FA14B15
:104210009F4CAD68F66864683F685B6816959C4D76
:1042200015961C94149717936D890A920A9A002682
:104230001A9507969A4CFF2A7AD0161C0236B601B8
:104240001E9B5001B446002B6BD0013BDBB2DD1C42
:1042500067467A195200125B0C998A4202DA80266C
:10426000760192190D9F002F0BD08E490E78002EEB
:1042700000D041E28C49C618715C4A4310994A4308
:1042800012130E9E002E00D039E2884FC618B100DE
:10429000C9590F9F090C002F00D04FE1521A8449D1
:1042A0000891C61891B2760005960FB20497089E41
:1042B000059F0691F153079E049FF6190796002A61
:1042C00000DA49E10B9EB24206DB129F961BBF1932
:1042D000119E1297013611966F4624370026BE5F55
:1042E000B24201DC099E0696139FBA4211DB169A70
:1042F0000A9EB24200DA1696159F0A9A974200DD8E
:104300001592149E9E4200DA1493179FBB4200DA66
:10431000179365446D002A5B069A09922953002B76
:1043200093D10A9B013BDBB20A930A9AFF2A84D1FC
:10433000574E604B129D0024195F35606C46242552
:104340002D5B119F35813761149B524F169E159A34
:10435000179C3B60BE60FA607C601AAF4C4E3A8896
:104360001C9D07987560728100F024FE444C7061BA
:104370002378002B00D0D4E1464DAA68EB689A421E
:1043800000DA60E129686868D31A091A013301313B
:10439000994200DA191C3A4F474E484A3B78C9B255
:1043A000089611703180002B00D0C4E1444D0123E8
:1043B00009952B70434F444D3C7800232B70002C03
:1043C00000D1DCE03C4E013C0896E4B21F9E21E0A7
:1043D0007378002B03D03D4B1B5D5D43AD113C4B0F
:1043E000A200D2582523F35C120CAD1A9D4202DBC9
:1043F0000998012303703449364A0B78D5539D42FE
:1044000000DA1D1C304F631E3D70DBB2002C00D162
:10441000B5E01C1C304F314D395D2B5DB28A081C54
:104420000691191C079300F067FD164F051C3B7899
:1044300008986700C553002BCAD10799B28A06981D
:1044400000F016FC6A21735E984203DC6C22B35EB6
:104450009842BDDA224B01201B689847002421B006
:10446000201CF0BD1D9E747D002C00D153E1124F25
:10447000013C317DE4B20897074D094F1F9E32E0A1
:10448000EC000020F40000208C13002070100020AD
:1044900084010020701A00203C1000204D000020F4
:1044A00000400040FA0000203D5900002404002094
:1044B0004815002026100020DA1A002008040020E9
:1044C000AE02002041100020100400201010002037
:1044D0009402002082130020410E0020A902002037
:1044E000940000206446728A201C00F005FD1D9A8D
:1044F000A31C117D620194469B01CA1C9B185B00A2
:10450000DA5B0022DA5373788C44002B0BD0A44B77
:104510001A78002A00D001E1A24B6246D35C5843CE
:104520002B6858430013621ED2B29446089A630067
:10453000D052002CD6D11D9C627D37E69A4F760072
:10454000BE5F189F76187A43199F7E439219964E44
:1045500012110896521AA4E61B9EB24203DC1C9F5D
:10456000961BBF191C971AAF0026BE5FB24200DA35
:104570001A9165446D0000212A5B295363E68B4C38
:104580002378002B00D0DCE08948817807788C46BE
:10459000B9421CD9C2788749131C013BDBB2069291
:1045A00007930025069B002B0DD0FC1C079B00E009
:1045B000031C9A1C920112195200581E565AC0B27E
:1045C0005552002BF4D10137FFB2BC45EAD8784CE4
:1045D000654601356678E0787649EDB20027002D12
:1045E00013D0013DEDB2B042F9D9AC1C331C069595
:1045F0009A1C9201121901335200DBB2555A5752DC
:104600009842F5D8069D002DEBD16B4B1B78002B03
:1046100005D06A4B01241B68002B00DC1FE7634EAA
:1046200001243378002B00D119E71D9F0523397D24
:1046300000937B7D03200193562302935A4A402323
:10464000FFF7D2FB0BE75E4E002309963370B1E60D
:104650005C4E5D4D1F961F9F5C4E287831787A8A9C
:1046600000F006FB6623FB5E984200DDF2E668235D
:10467000FB5E984200DAEDE6554B1A78002A16D117
:10468000544A554C10781D94011C0C314900611896
:104690008C7901302C70C979C0B231701070052846
:1046A00000D06FE5012232702A701A706AE529780D
:1046B0003F4A01315078C9B24FB201382970874260
:1046C00017DB317817784A1CD2B251B201208C46E0
:1046D000791E287032708C450BDB3F4F3A1C1D97BA
:1046E0001832B97FD2791C703A4B29703270187029
:1046F00048E5394C1D9445E5C95C4A43BEE5374F52
:104700000A9E089771007F5E0697089F7A52069965
:1047100052185210B9E5324D002247E55B5C584310
:10472000FEE6321C76230093143203200121052378
:10473000FFF743FB20E6042001216722FFF747FB38
:1047400034E6284D052329780120244A5A24009470
:10475000FFF733FB154E3378002B00D114E76D23A0
:10476000297803200093204A0523FFF726FB0BE757
:104770000F4B04245D7819780120802300941B4A94
:10478000512401950294FFF72FFB084D2B78002B45
:1047900000D1EEE401207221FFF702FBE9E4C046FC
:1047A000FA0000203D59000048150020EC000020D0
:1047B0003D0E002000400040F9000020A80100202C
:1047C000AE0200208C130020A80200204010002020
:1047D00020040020461B002070100020DA1A002060
:1047E0003C100020411000208213002006410040B0
:1047F000F7B50B4C0B4D24680194002403E0765B65
:104800008018A419C918861CB601B446CF1C674489
:104810007E00775BBC46019FBC45F0DC201CFEBDE2
:10482000741300200040004070B50E1C0499051C54
:104830000B4C00290AD0023203339201D2185200E5
:10484000A35AA05A584300F0B5FB011C0235AD0134
:104850000336AE19760089B2A35BA15370BDC04682
:1048600000400040F0B5584D8BB06C7D6F4603940E
:104870000C222C7DD35DFF267B77FB7753490422E6
:1048800008A83E767E76BC76FC763E77BE7700F052
:10489000F3FB09A84E49042200F0EEFB2723EB5C52
:1048A000002B23D1039C002C20D0013C201C002194
:1048B00000220123FFF79CFF0121221C061C494214
:1048C000201C00230096FFF7AFFF297D012301394B
:1048D000201C00225B42FFF78BFF297D221C0090E9
:1048E0004B1E201CFFF7A0FF013CDFD22823EB5C0E
:1048F000002B24D12C7D002C21D0013C211C012235
:1049000000230020FFF774FF061C0120211C231C3C
:10491000404200220096FFF787FF687D0122211C9C
:10492000524200230138FFF763FF6B7D211C00908A
:104930005A1E181C231CFFF777FF013CDED22723E9
:10494000EB5C002B3ED12823EB5C002B3AD10327F4
:1049500007A909AACE57D35706ACE557F418291C66
:10496000201C00220394FFF743FF291C041C039A18
:10497000301C2B1C0094FFF757FFB31CEA1C08A93E
:104980009B019B18CA575B00AC181249039304940F
:104990005C5A301C049900230594FFF729FF291C59
:1049A000041C321C049B301C0094FFF73DFF039A4B
:1049B000084B0599D45AD35A6418064B6408D4524C
:1049C000013FC5D20BB0F0BD701000208451000033
:1049D0008851000000400040F0B58BB0051C0891E4
:1049E00009920793411C18D1464EF478013CE4B279
:1049F00010E00121201C079A494200F07DFA424B49
:104A00006200D052414AE3019B181A88013C0022FF
:104A10001A80E4B27378A342EBD93D4B3D4F002698
:104A20005C7D05960496039743E0013CE4B26B1C61
:104A300006D063015B19384A9B00D35A069303E002
:104A4000314963005B5A069301214942079A201CB1
:104A500000F052FA6A4618218B5E3049C31A620090
:104A60005352D9175B184B40F618691C05D06101E9
:104A70004919294A8900885007E02349505223499F
:104A8000E2015218118800211180E20707D503992D
:104A9000994200DD0393049A9A4207DB09E09F42A2
:104AA00000DD1F1C0599994202DB02E0049300E03F
:104AB0000593002CB9D101350CD1194B1B78002B73
:104AC00008D0104B0120D9785B2300930E4A0423B1
:104AD000FFF773F9089A04991680039A8B1A0599BF
:104AE000CF1B9F4200DA1F1C099A0D4B17801B78C1
:104AF000002B05D0064B0B20597D5C22FFF767F990
:104B00000BB0F0BD3D0E00201E1B002004410040F4
:104B100070100020FFFF000024040020DA1A00209B
:104B2000EC000020F0B5454B89B0587D1B7D002579
:104B30000593434B041C5B69424A5B000693424B5E
:104B4000424E5D578446AD0011E00798013BDBB251
:104B5000C418A00067003E4C3F5F069C6743AC59F9
:104B6000674384583C198450002BEED10C1C611E05
:104B7000C9B2002C03D04F01059B0797F4E7354BD2
:104B8000304A1F68131C0833DE6F6046BD1BE917EF
:104B90006B184B401B149C462F4B30490433DB7F72
:104BA0009C450FDB2E4B3F14360C2D0C1F805E8076
:104BB0009D800B78002B3ED0201C03217122FFF733
:104BC00006F938E00B78002B0AD01C4B197D08231E
:104BD000009360230190029302208023FFF704F9E1
:104BE000204B00241978164B1F4A5E69164B76003D
:104BF0001C570B1CA40010E0013BDBB21B4F5D00F7
:104C0000EF5F980077430597104FE5592F1C059DDE
:104C10006F43BC46875867448750002BECD10F4B3D
:104C200001241B78002B06D06123009302200E4A3A
:104C30000823FFF7C2F809B0201CF0BD7010002057
:104C400084010020240400204A00002044020020A7
:104C500048150020700200208C130020EC0000207A
:104C6000DA1A002041100020940200208213002054
:104C700010B5074B4400E45A064BDB8A934202D23C
:104C800080235B01E41800F037F9201A10BDC046FC
:104C90001E1B00208C13002010B59CB07024221C19
:104CA0006846174900F0E8F96946221C154800F0EB
:104CB000E3F96946221C144800F0DEF9134950223A
:104CC000134800F0D9F913492522134800F0D4F90C
:104CD000052412491922124800F0CEF9221C11496C
:104CE000114800F0C9F9221C1049114800F0C4F91C
:104CF0001049221C104800F0BFF91CB010BDC0467E
:104D000058540000480E00208C1300200854000066
:104D10007010002038550000481A00205D55000032
:104D2000240E002076550000A90200207B550000CB
:104D3000410E0020BD5B00001010002008B50449A2
:104D4000044B41430448C91800F034F9C0B208BD0F
:104D500044FEFFFFFE24020040420F0010B5134C3A
:104D60000023E37003232371114B9A78032A06D0A2
:104D7000042A02D0022A0DD106E0C72300E0D7237F
:104D8000A3700223637103E0F223A3706271012315
:104D9000A371E371064BA07860331978FEF788FBA6
:104DA000A070A078FFF7CAFF207010BDC0100020CF
:104DB0008C130020F7B5364B364CDB7E002B00D130
:104DC000A371227801266379301C984083B2534343
:104DD000314DDB10DBB22B802278FA2360799B0007
:104DE0005343311C2D4F814088B2B9885843090183
:104DF00000F0E0F8C7B26F8023782D22607953432A
:104E00008640B0B23901584300F0D4F8C0B2A8804F
:104E1000E379224862798179D800181A4900C000E4
:104E20000131E03048437901904000F075F8184BAB
:104E3000E8801E7DD87C1A493018C0B208705A7DAF
:104E40004A709C7D5D7E65434519EDB201958D707C
:104E5000DF7D9D7E7D43AC4694446546CD70197ED2
:104E6000104B002900D17C43564342431C701B78F1
:104E70000D49D2180D4B0E801A80054B019F5A7FA9
:104E80001B7FBD185BB201359D40094B1D60F7BD0E
:104E900070100020C0100020600200208C13002041
:104EA0003D0E00204110002026100020721300202B
:104EB0001810002010B5064C0F2322680260081C51
:104EC0009843031C884200D00433D318236010BDDC
:104ED0003C00002010B51C1C029B88420ADB90425B
:104EE00007DA1B1B401A5843511A00F063F82418C4
:104EF00000E01C1C201C10BD00B5023080010331F5
:104F00004118044B4900C85A904202DA80235B01E1
:104F1000C01800BD00400040002934D00123002209
:104F200010B488422CD301242407A14204D2814228
:104F300002D209011B01F8E7E400A14204D2814238
:104F400002D249005B00F8E7884201D3401A1A43B5
:104F50004C08A04202D3001B5C0822438C08A042EC
:104F600002D3001B9C082243CC08A04202D3001BA2
:104F7000DC082243002803D01B0901D00909E3E71C
:104F8000101C10BC7047002801D00020C04307B49B
:104F9000024802A14018029003BDC046D90000009B
:104FA0000029F0D003B5FFF7B9FF0EBC4243891AC0
:104FB0001847C046002941D010B4041C4C40A446F8
:104FC00001230022002900D54942002800D5404293
:104FD00088422CD301242407A14204D2814202D268
:104FE00009011B01F8E7E400A14204D2814202D288
:104FF00049005B00F8E7884201D3401A1A434C0885
:10500000A04202D3001B5C0822438C08A04202D3BA
:10501000001B9C082243CC08A04202D3001BDC08E2
:105020002243002803D01B0901D00909E3E7101C23
:105030006446002C00D5404210BC7047002806D0C2
:1050400003DB0020C043400801E08020000607B4D5
:10505000024802A14018029003BDC046190000009A
:105060000029EBD003B5FFF7A7FF0EBC4243891A16
:105070001847C0467047C046F0B5051C0F2A2FD907
:105080000B1C0343051C9C072CD10C1C031C151C7A
:105090002668103D1E6066685E60A6689E60E668D1
:1050A0001034DE6010330F2DF2D8131C103B1B0997
:1050B00001331B01C518C9180F231A40032A0FD941
:1050C0000E1C2C1C131C80CE043B80C4032BFAD86E
:1050D000131F9B0801339B0003242240C918ED18BD
:1050E000002A05D00023CC5CEC5401339342FAD162
:1050F000F0BDC04670B5830742D0002A3FD0013AC8
:10510000CEB2031C032503E0541E002A37D0221C14
:105110001E7001332B42F7D1032A28D9FF250D40F9
:105120002C0225432C0425430F2A13D91C1C161CC2
:10513000103E25606560A560E56010340F2EF7D83D
:10514000141C103C2409013424011B190F24224093
:10515000032A0CD91E1C141C043C20C6032CFBD8AB
:10516000141FA4080134A40003252A401B19002A97
:1051700005D0C9B2013A19700133002AFAD170BDC5
:10518000031CC9E70101FFFF01FF01FF70100020B0
:10519000480E0020481A0020240E0020A9020020FA
:1051A000410E0020FA0000201010002000FF010036
:1051B000FF00000100010203040405060708090AB4
:1051C0000B0B0C0D0E0F10111112131415151617D1
:1051D0001818191A1B1B1C1D1D1E1F1F2021212200
:1051E000232324242525262727282829292A2A2B52
:1051F0002B2C2C2D01040004581B0020FF7F008065
:10520000FF7F008005FFFF02010C000C0604030075
:10521000040000000101FFFF00000000000000008A
:1052200000000000000000000000FFFF0000000080
:10523000000000000000000000000000000000006E
:10524000FFFFFFFFFFFFFFFFFFFFFFFFFFFFFFFF6E
:10525000FFFFFFFFFFFFFFFFFFFFFFFFFFFFFFFF5E
:10526000FFFFFFFFFFFFFFFFFFFFFFFFFFFFFFFF4E
:10527000FFFFFFFFFFFFFFFFFFFFFFFFFFFFFFFF3E
:10528000FFFFFFFFFFFFFFFFFFFFFFFFFFFFFFFF2E
:10529000FFFFFFFFFFFFFFFFFFFFFFFFFFFFFFFF1E
:1052A000FFFFFFFFFFFFFFFFFFFFFFFFFFFFFFFF0E
:1052B000FFFFFFFFFFFFFFFFFFFFFFFFFFFFFFFFFE
:1052C000FFFFFFFFFFFFFFFFFFFFFFFFFFFFFFFFEE
:1052D000FFFFFFFFFFFFFFFFFFFFFFFFFFFFFFFFDE
:1052E000FFFFFFFFFFFFFFFFFFFFFFFFFFFFFFFFCE
:1052F000FFFFFFFFFFFFFFFFFFFFFFFFFFFFFFFFBE
:10530000FFFFFFFFFFFFFFFFFFFFFFFFFFFFFFFFAD
:10531000FFFFFFFFFFFFFFFFFFFFFFFFFFFFFFFF9D
:10532000FFFFFFFFFFFFFFFFFFFFFFFFFFFFFFFF8D
:10533000FFFFFFFFFFFFFFFFFFFFFFFFFFFFFFFF7D
:10534000FFFFFFFFFFFFFFFFFFFFFFFFFFFFFFFF6D
:10535000FFFFFFFFFFFFFFFFFFFFFFFFFFFFFFFF5D
:10536000FFFFFFFFFFFFFFFFFFFFFFFFFFFFFFFF4D
:10537000FFFFFFFFFFFFFFFFFFFFFFFFFFFFFFFF3D
:10538000FFFFFFFFFFFFFFFFFFFFFFFFFFFFFFFF2D
:10539000FFFFFFFFFFFFFFFFFFFFFFFFFFFFFFFF1D
:1053A000FFFFFFFFFFFFFFFFFFFFFFFFFFFFFFFF0D
:1053B000FFFFFFFFFFFFFFFFFFFFFFFFFFFFFFFFFD
:1053C000FFFFFFFFFFFFFFFFFFFFFFFFFFFFFFFFED
:1053D000FFFFFFFFFFFFFFFFFFFFFFFFFFFFFFFFDD
:1053E000FFFFFFFFFFFFFFFFFFFFFFFFFFFFFFFFCD
:1053F000FC42D2C300000000000000000000045284
:105400004D31483043463532504F4C4C4F434B00A2
:10541000004D0000480000001E0101001E110000A8
:1054200000000001010000001000101D101D0A0006
:1054300000000005D00200000001015050500101A1
:10544000323200000000FFFFFFFFFFFFFFFFFFFF02
:10545000FFFF1100000000000101020022011403FF
:105460000403020000000764280059070000AB088D
:105470005600360100000196070AF1640707B003E1
:10548000520326025E013000F300000000400100DC
:105490002D002800000028008900000002010123DF
:1054A000FFFF0000000000000000000000000000FE
:1054B00000020003140000070B00640000056302F3
:1054C0006D00FF7F0080010000000200E001280461
:1054D00005020200000007502800AB070000340955
:1054E000A40062010000015A070AF1640807F302F0
:1054F000A802B80118013000F300000000400100CC
:1055000023001E0000002800890000000301012381
:10551000FFFF00000000000000000000000000008D
:1055200000030000140000070B0091000005580361
:105530007A00FF7F008023000001020304050607B4
:1055400008090A0B0C0D0E0F101112131415161763
:1055500018191A1B1C1D00000000000000000102A9
:10556000030405060708090A0B0C0D0E0F100000B6
:10557000000000000000000000000000000000002B
:10558000FBFBFBFAFAFAFAF9F9F9F9F9F8F8F8F885
:10559000F8F8F8F8F8F8F8F8F7F7F8F7F8F800007E
:1055A0000000000000FBFBFAFAFAFAF9F9F9F9F940
:1055B000F8F8F8F8F8F8F8F8F8F8F8F8F8F8F8F86B
:1055C000F8F8F800000000000000FBFBFAFAFAFA15
:1055D000F9F9F9F9F9F8F8F8F8F8F8F8F8F8F8F846
:1055E000F7F8F7F7F8F8F7F700000000000000FB05
:1055F000FAFAFAFAF9F9F9F9F9F8F8F8F8F8F8F81E
:10560000F8F7F7F7F7F7F7F7F7F7F7F8F70000000D
:1056100000000000FAFAFAFAF9F9F9F9F9F8F8F8DD
:10562000F8F8F8F8F8F7F7F7F7F7F7F7F7F7F7F705
:10563000F7F700000000000000FAFAFAF9F9F9F9AA
:10564000F9F8F8F8F8F8F8F7F8F7F7F7F7F7F7F7E1
:10565000F7F7F7F7F7F7F700000000000000FAFA95
:10566000F9F9F9F9F9F8F8F8F8F8F8F7F7F7F7F7BA
:10567000F7F7F7F7F7F7F7F7F7F7F7F70000000096
:10568000000000FAF9F9F9F9F9F8F8F8F8F8F8F77C
:10569000F7F7F7F7F7F7F7F7F7F7F7F7F7F7F7F79A
:1056A000F700000000000000FAF9F9F9F9F8F8F83D
:1056B000F8F8F7F7F7F7F7F7F7F7F7F7F7F7F7F679
:1056C000F7F7F7F7F7F700000000000000F9F9F925
:1056D000F9F8F8F8F8F8F7F7F7F7F7F7F7F7F7F753
:1056E000F7F6F6F6F6F7F6F7F7F7F6000000000023
:1056F0000000F9F9F9F9F8F8F8F8F7F7F7F7F7F71C
:10570000F7F6F6F6F6F6F6F6F6F6F6F6F6F6F7F637
:1057100000000000000000F9F9F9F8F8F8F8F7F7D0
:10572000F7F7F7F7F7F6F6F6F6F6F6F6F6F6F6F614
:10573000F6F6F6F6F600000000000000F9F9F9F8B8
:10574000F8F8F8F7F7F7F7F7F7F6F6F6F6F6F6F6ED
:10575000F6F6F6F6F6F6F6F6F6F6000000000000AD
:1057600000F9F9F8F8F8F8F7F7F7F7F7F7F6F6F6BB
:10577000F6F6F6F6F6F6F6F6F6F6F6F6F6F6F600BF
:10578000000000000000F9F8F8F8F8F7F7F7F7F76D
:10579000F7F7F6F6F6F6F6F6F6F6F6F6F6F6F6F6A7
:1057A000F6F6F6F600000000000000F9F8F8F8F848
:1057B000F7F7F7F7F7F7F6F6F6F6F6F6F6F6F6F683
:1057C000F6F6F6F6F6F6F6F6F60000000000000033
:1057D000F8F8F8F8F8F7F7F7F7F6F6F6F6F6F6F65B
:1057E000F6F6F5F6F5F5F5F6F6F6F6F6F6F6000049
:1057F00000000000000000000000000000000000A9
:105800000000000000000000000000000000000098
:105810000000000000000000000000000000000088
:105820000000000000000000000000000000000078
:105830000000000000000000000000000000000068
:105840000000000000000000000000000000000058
:105850000000000000000000000000000000000048
:105860000000000000000000000000000000000038
:105870000000000000000000000000000000000028
:105880000000000000000000000000000000000018
:105890000000000000000000000000000000000008
:1058A00000000000000000000000000000000000F8
:1058B00000000000000000000000000000000000E8
:1058C00000000000000000000000000000000000D8
:1058D00000000000000000000000000000000000C8
:1058E00000000000000000000000000000000000B8
:1058F00000000000000000000000000000000000A8
:105900000000000000000000000000000000000097
:105910000000000000000000000000000000000087
:105920000000000000000000000000000000000077
:105930000000000000000000000000000047434598
:1059400049474749494B494E505350504E4E50508D
:10595000535053535350504B504E4300004240401D
:1059600042424245454543474549474B49494949D4
:105970004B494B494B4B4B494B4B49000043505310
:1059800045434545474545474747494B4749494BA7
:105990004E4B4B494B4B4B4B494949000045534BF0
:1059A000434343474349474747494B47474B494B85
:1059B000474B4B494B4B4B4749494B0000454242F3
:1059C000424343434745494949494B47494B494964
:1059D000494B494B4B4B494B47494B0000474243CE
:1059E00043434747474747494949494B4B4B4B4935
:1059F0004B4B4E494E4B4B4B49494E0000454242A2
:105A000043454347474749494B4B4949494B4E4911
:105A10004B4B4B49494E494749495300004B424380
:105A2000454549454749474949494E49494B494BED
:105A3000494E494B4B494B4B4E4B5000005F4B4539
:105A4000434745474549454B4B4B494E4E4B4B49C8
:105A50004B494E4E4B4B4E4B4E4B5300006247450D
:105A6000474947474545474B4B4B4E4B4B494B4BA3
:105A70004E4B4E4B4E4E4E4B4E4E4E00004E4547FB
:105A8000474749474B4B494B4B4B4B4E494B4E4B72
:105A90004B494B494B4E4B49494B4E00004B4745F8
:105AA000454749474947474B4B4B4B4E4E4B474B5E
:105AB0004B4B4B494B49494B49494E0000494343E5
:105AC000494547474747474747494B494B49494954
:105AD000494B4949494B494B4B49500000494345C3
